:02000000B92A1B
:06000600000000000800EC
:10000C000F3083120313FC004730FD00FD0B0C284E
:0A001C00FC0B0C2800000000080097
:0E002600213083120313FD00FD0B1728080084
:10003400063083120313FD00FD0B1E280000080088
:1000440083160313AE01B001B1011030B2000430C5
:10005400310203185728F030831286008030F000F4
:100064007008063E840083163209F0007008800090
:10007400032003200F3083120605F0007008831656
:10008400AF007008031951283008AE002F08031977
:100094004F28AF0CAF13AE0A48280430B100B20D9C
:1000A40032100430B007B10A29282E08F0000800E5
:1000B40083160313AE1B61288312881163288312ED
:1000C400881583162E1B6928831208116B28831246
:1000D40008158316AE1A71288312881073288312A8
:1000E400881483162E1A7928831208107B28831209
:1000F40008146A187F280816802808128816032016
:1001040088128316AE198928831288118B288312CA
:10011400881583162E1991288312081193288312A7
:1001240008158316AE189928831288109B28831209
:10013400881483162E18A12883120810A32883126A
:1001440008146A18A7280816A82808128816032075
:0E01540088126A1CAF280620B028132008006D
:1001620022207008AD000F3083120605F00003193B
:0E017200BC281A20B42883162D08F0000800BF
:0E0180008312031369088A00680882000800D1
:10018E00831203136A1083162D08AE005A206A14C8
:02019E00080057
:1001A00006308312031385006D3087000630FB0094
:1001B0001330FC00AD30FD00FD0BDC28FC0BDC280F
:1001C000FB0BDC2800000000063085007D30870036
:1001D0000630FB001330FC00AD30FD00FD0BEE28B7
:1001E000FC0BEE28FB0BEE2800000000063085001B
:1001F0004F3087000630FB001330FC00AD30FD00AF
:10020000FD0B0029FC0B0029FB0B0029000000005E
:1002100006308500073087000630FB001330FC00F5
:10022000AD30FD00FD0B1229FC0B1229FB0B12292E
:06023000000000000800C0
:100236004B3083120313850005163F3087000630C6
:10024600FB001330FC00AD30FD00FD0B2829FC0B34
:100256002829FB0B2829000000004B3085000516D5
:10026600063087000630FB001330FC00AD30FD0081
:10027600FD0B3B29FC0B3B29FB0B3B290000000037
:100286004B30850005165B3087000630FB001330C7
:10029600FC00AD30FD00FD0B4E29FC0B4E29FB0B7F
:0802A6004E29000000000800D1
:1002AE0006308312031385003F3087000630FB00B3
:1002BE001330FC00AD30FD00FD0B6329FC0B6329F0
:1002CE00FB0B632900000000063085000630870016
:1002DE000630FB001330FC00AD30FD00FD0B752920
:1002EE00FC0B7529FB0B75290000000006308500FC
:1002FE005B3087000630FB001330FC00AD30FD0094
:10030E00FD0B8729FC0B8729FB0B872900000000BA
:02031E000800D5
:1003200083120313EC01B12070088312EC007008F3
:1003300003199329CB293130F0000C2A3230F00018
:100340000C2A3330F0000C2A2F30F0000C2A343005
:10035000F0000C2A3530F0000C2A3630F0000C2A60
:100360002A30F0000C2A3730F0000C2A3830F00028
:100370000C2A3930F0000C2A2D30F0000C2A2A30DB
:10038000F0000C2A3030F0000C2A3D30F0000C2A2E
:100390002B30F0000C2A6C08013A03199B296C08D9
:1003A000023A03199E296C08033A0319A1296C0823
:1003B000043A0319A4296C08053A0319A7296C0803
:1003C000063A0319AA296C08073A0319AD296C08E3
:1003D000083A0319B0296C08093A0319B3296C08C3
:1003E0000A3A0319B6296C080B3A0319B9296C08A3
:1003F0000C3A0319BC296C080D3A0319BF296C0883
:100400000E3A0319C2296C080F3A0319C5296C0862
:0A041000103A0319C82990290800CA
:10041A00803083120313F0007008063E8400FF3018
:04042A008000080046
:10042E0083160313881208120810881008118811F9
:10043E0083128812081288110811881008100620DD
:10044E000620062088140814881603208812062019
:10045E00881603208812062088160320881206208C
:10046E00081088160320881206208816032088128A
:10047E008810881588160320881206208811081403
:10048E00881603208812081088160320881206206A
:10049E008816032088120814881603208812062056
:1004AE000810881603208812881508158814081459
:0C04BE0088160320881206206A1408002B
:1004CA00772A803083120313ED008A2AC030ED00A8
:1004DA008A2A9430ED008A2AD430ED008A2A8030A4
:1004EA00ED008A2A831203136D08013A0319662A5A
:1004FA006D08023A03196B2A6D08033A03196E2A2A
:10050A006D08043A0319712A742A6E03F0006D0803
:10051A00F0077008ED0070088316AE005A206A10C2
:10052A008316AC012C0883126F0784000008031994
:10053A00AA2A83162C0883126F07840000088316E0
:10054A00AD00C7208316AC0A972A83126A140800E2
:10055A00C0208A110A128000840AE80A0319E90AEB
:08056A00F003031DAD2A080097
:10057200E82383120313EB010D22172201308316A5
:10058200AE005A200C308316AE005A200317871390
:10059200881383160313970101308312ED00013093
:1005A200EE006530EF00652283160317880189018A
:1005B20003138501870183128501870183160813BE
:1005C200831289019021831203137008E7006708E0
:1005D200313A031D062B0130ED000130EE00A03050
:1005E200EF0065220230ED000130EE005B30EF00DB
:1005F20065225721572101308316AE005A209021DF
:10060200831203137008E700E82A6708323A031DD1
:100612001D2B01308316AE005A200130ED0001304F
:10062200EE002F30EF006522D020D02090218312DF
:1006320003137008E700062B6708333A031D342BB7
:1006420001308316AE005A200130ED000130EE0079
:100652002030EF0065221B211B21902183120313FE
:100662007008E7001D2B6708333A0319412B67080E
:10067200363A0319412B6708393A0319412B832B68
:100682000130ED000130EE003B30EF006522FF301B
:10069200890008170B30FB002630FC005D30FD009E
:1006A200FD0B512BFC0B512BFB0B512B00000000BF
:1006B2008901081301308316AE005A20FF308900E9
:1006C20008170130ED000130EE004B30EF006522DB
:1006D2000B30FB002630FC005D30FD00FD0B6F2B64
:1006E200FC0B6F2BFB0B6F2B0000000001308316FD
:1006F200AE005A2089010813902183120313700857
:08070200E700342BE32A842BED
:1007D00020308400473083120313F0008A30E80091
:1007E0000330E900AD22A03084000C308312F00009
:1007F000D130E8000330E900AD22673084000130D9
:100800008312F000E730E8000330E900AD22080071
:100714004A345534533454342034543455345234D4
:0E0724004E3420344C344534463454340034C2
:1007320047344F34203453345434523441344934DE
:080742004734483454340034FC
:10074A006D346534733473346134673465342034FA
:10075A0066346C34753473346834653473340034F5
:10076A006D346534733473346134673465342034DA
:10077A0066346C34753473346834653473340034D5
:10078A005434553452344E3420344C34453446347F
:04079A00543400349F
:04079E003A340034B5
:1007A20047344F342034533454345234413449346E
:0807B20047344834543400348C
:1007BA003F3406345B344F3466346D347D34073449
:0407CA007F346F34D5
:0207CE000034F5
:04400E00F22F000786
:00000001FF
