:02000000562A7E
:06000600000000000800EC
:10000C000F3083120313FC004730FD00FD0B0C284E
:0A001C00FC0B0C2800000000080097
:0E002600213083120313FD00FD0B1728080084
:1000340083120313DE01E001E1011030E200043019
:10004400610203184B28F03086008030F0007008FD
:10005400063E84006209F00070088000032003203B
:100064000F300605F0007008DF00700803194528FA
:100074006008DE005F0803194328DF0CDF13DE0A83
:100084003C280430E100E20D62100430E007E10A8C
:0800940021285E08F0000800BD
:10009C0083120313DE1B54288811552888155E1B08
:1000AC00592808115A280815DE1A5E2888105F286E
:1000BC0088145E1A632808106428081454186828D9
:1000CC00081669280812881603208812DE19702871
:1000DC008811712888155E1975280811762808155D
:1000EC00DE187A2888107B2888145E187F28081060
:1000FC008028081454188428081685280812881695
:10010C0003208812541C8C2806208D2813200800EC
:10011C00063083120313FD00FD0B9228000008002B
:0E012C008312031357088A0056088200080049
:10013A001A207008DD000F300605F0000319A72801
:0A014A008E20A0285D08F0000800D8
:100154008312031354105D08DE004E20541408006B
:1001640006308312031385006D3087000630FB00D0
:100174001330FC00AD30FD00FD0BBE28FC0BBE2887
:10018400FB0BBE2800000000063085007D30870090
:100194000630FB001330FC00AD30FD00FD0BD02811
:1001A400FC0BD028FB0BD028000000000630850093
:1001B4004F3087000630FB001330FC00AD30FD00EB
:1001C400FD0BE228FC0BE228FB0BE22800000000F8
:1001D40006308500073087000630FB001330FC0032
:1001E400AD30FD00FD0BF428FC0BF428FB0BF428C8
:0601F400000000000800FD
:1001FA000F29803083120313D9002229C030D90075
:10020A0022299430D9002229D430D90022298030D9
:10021A00D9002229831203135908013A0319FE2827
:10022A005908023A031903295908033A03190629F6
:10023A005908043A031909290C295A03F0005908E4
:10024A00F0077008D9007008DE004E205410DC0157
:10025A005C085B078400000803193B295C085B07FC
:10026A0084000008DD00AA20DC0A2D2954140800A5
:10027A0083120313D5019D207008D5007008031955
:10028A00402977293130F000B8293230F000B829F6
:10029A003330F000B8292F30F000B8293430F0009C
:1002AA00B8293530F000B8293630F000B8292A309C
:1002BA00F000B8293730F000B8293830F000B829F2
:1002CA003930F000B8292D30F000B8292A30F00072
:1002DA00B8293030F000B8293D30F000B8292B3069
:1002EA00F000B8295508013A031947295508023A76
:1002FA0003194A295508033A03194D295508043A9E
:10030A00031950295508053A031953295508063A7D
:10031A00031956295508073A031959295508083A5D
:10032A0003195C295508093A03195F2955080A3A3D
:10033A000319622955080B3A0319652955080C3A1D
:10034A000319682955080D3A03196B2955080E3AFD
:10035A0003196E2955080F3A031971295508103ADD
:08036A00031974293D29080064
:1003720006308312031387003F3085000630FB00EE
:100382001330FC00AD30FD00FD0BC529FC0BC52967
:10039200FB0BC529000000000630850006308700EF
:1003A2000630FB001330FC00AD30FD00FD0BD729F9
:1003B200FC0BD729FB0BD729000000000630850073
:1003C2005B3087000630FB001330FC00AD30FD00CF
:1003D200FD0BE929FC0BE929FB0BE92900000000D0
:0203E200080011
:1003E4008316031388120812081088100811881144
:1003F4008312881208128811081188100810062028
:100404000620062088140814881603208812062063
:1004140088160320881206208816032088120620D6
:1004240008108816032088120620881603208812D4
:10043400881088158816032088120620881108144D
:1004440088160320881208108816032088120620B4
:1004540088160320881208148816032088120620A0
:1004640008108816032088128815081588140814A3
:0C0474008816032088120620541408008B
:10048000803083120313F0007008063E8400FF30B2
:0404900080000800E0
:1004940096208A110A128000840AD60A0319D70A00
:0804A400F003031D4A2A0800C1
:1004AC00042383120313D8014022F2210130DE0011
:1004BC004E200C30DE004E200130D9000130DA0025
:1004CC005230DB00FD2083160317880189010313CA
:1004DC008501870183128501870187013D218312E4
:1004EC0003137008D1000130DE004E205108313A60
:1004FC00031D952A0130D9000130DA002A30DB00C7
:10050C00FD200230D9000130DA002030DB00FD2064
:10051C00B9213D21831203137008D1007C2A0130CC
:10052C00DE004E205108323A031DAA2AB2200130B7
:10053C00D9000130DA003630DB00FD203D2183127A
:10054C0003137008D100982A0130DE004E205108A8
:10055C00333A031DBE2A0130D9000130DA00423093
:10056C00DB00FD203D21831203137008D100AD2A5E
:04057C00742ABF2AF4
:1006080020308400343083120313F000C530D60044
:080618000230D7004A2208005D
:10058A005434553452344E3420344C344534463481
:04059A0054340034A1
:10059E0047344F3420345334543452344134493474
:0805AE00473448345434003492
:1005B60047344F342034533454345234413449345C
:0805C60047344834543400347A
:1005CE004A3455345334543420345434553452341C
:0E05DE004E3420344C3445344634543400340A
:0205EC000034D9
:0405EE003A34003467
:1005F2003F3406345B344F3466346D347D34073413
:040602007F346F349E
:04400E00F22F000786
:00000001FF
