:02000000D22903
:06000600000000000800EC
:0E000C00213083120313FD00FD0B0A280800AB
:10001A000F3083120313FC004730FD00FD0B132839
:0A002A00FC0B132800000000080082
:10003400063083120313FD00FD0B1E280000080088
:1000440083120313DE01E001E1011030E200043009
:10005400610203185328F03086008030F0007008E5
:10006400063E84006209F00070088000032003202B
:100074000F300605F0007008DF00700803194D28E2
:100084006008DE005F0803194B28DF0CDF13DE0A6B
:1000940044280430E100E20D62100430E007E10A74
:0800A40029285E08F0000800A5
:1000AC0083120313DE1B5C2888115D2888155E1BE8
:1000BC006128081162280815DE1A6628881067283E
:1000CC0088145E1A6B2808106C28081454187028B1
:1000DC00081671280812881603208812DE19782851
:1000EC008811792888155E197D2808117E28081535
:1000FC00DE1882288810832888145E188728081038
:10010C008828081454188C2808168D28081288166C
:10011C0003208812541C94280D20952806200800D2
:10012C008312031354105D08DE005620541408008B
:0E013C008312031357088A0056088200080039
:10014A0022207008DD000F300605F0000319AF28E1
:0A015A001A20A8285D08F000080034
:10016400C428803083120313D900D728C030D900A3
:10017400D7289430D900D728D430D900D728803054
:10018400D900D728831203135908013A0319B32855
:100194005908023A0319B8285908033A0319BB2825
:1001A4005908043A0319BE28C1285A03F000590813
:1001B400F0077008D9007008DE0056205410DC01E6
:1001C4005C085B07840000080319F0285C085B07DF
:1001D40084000008DD009620DC0AE228541408009C
:1001E4008316031388120812081088100811881146
:1001F40083128812081288110811881008100D2023
:100204000D200D20881408148816032088120D2050
:100214008816032088120D208816032088120D20CA
:1002240008108816032088120D20881603208812CF
:10023400881088158816032088120D208811081448
:1002440088160320881208108816032088120D20AF
:1002540088160320881208148816032088120D209B
:1002640008108816032088128815081588140814A5
:0C0274008816032088120D205414080086
:1002800083120313D501A5207008D5007008031947
:1002900043297A293130F000BB293230F000BB29E4
:1002A0003330F000BB292F30F000BB293430F00090
:1002B000BB293530F000BB293630F000BB292A308D
:1002C000F000BB293730F000BB293830F000BB29E3
:1002D0003930F000BB292D30F000BB292A30F00066
:1002E000BB293030F000BB293D30F000BB292B305A
:1002F000F000BB295508013A03194A295508023A6A
:1003000003194D295508033A031950295508043A91
:10031000031953295508053A031956295508063A71
:10032000031959295508073A03195C295508083A51
:1003300003195F295508093A0319622955080A3A31
:100340000319652955080B3A0319682955080C3A11
:1003500003196B2955080D3A03196E2955080E3AF1
:100360000319712955080F3A031974295508103AD1
:08037000031977294029080058
:10037800803083120313F0007008063E8400FF30BB
:0403880080000800E9
:10038C009E208A110A128000840AD60A0319D70A01
:08039C00F003031DC62908004F
:1003A400702283120313D801BC218316031788011A
:1003B4008901F2200130DE0056200C30DE00562088
:1003C4000130D9000130DA005230DB00B22083164C
:1003D4008701831287014021831203137008D1001F
:1003E4005108313A031D0A2A0130D9000130DA00DC
:1003F4002A30DB00B2200230D9000130DA0020308C
:10040400DB00B2204021831203137008D100F229CB
:100414000130DE0056205108323A031D1E2A0130F5
:10042400D9000130DA003630DB00B22040218312DB
:1004340003137008D1000D2A0130DE005620510844
:10044400333A031D322A0130D9000130DA00423038
:10045400DB00B2204021831203137008D100212A4B
:0A0464000130DE005620ED29362A93
:1004E00020308400343083120313F0003C30D600F7
:0804F0000230D700C62108000C
:100478005434553452344E3420344C344534463494
:0404880054340034B4
:10048C0047344F3420345334543452344134493487
:08049C004734483454340034A5
:1004A40047344F342034533454345234413449346F
:0804B40047344834543400348D
:1004BC004A3455345334543420345434553452342F
:0E04CC004E3420344C3445344634543400341D
:0204DA000034EC
:0404DC003A3400347A
:04400E00F22F000786
:00000001FF
