:02000000D22903
:06000600000000000800EC
:0E000C00213083120313FD00FD0B0A280800AB
:10001A000F3083120313FC004730FD00FD0B132839
:0A002A00FC0B132800000000080082
:10003400063083120313FD00FD0B1E280000080088
:1000440083120313AD01AF01B0011030B1000430CD
:10005400300203185328F03086008030F000700816
:10006400063E84003109F00070088000032003205C
:100074000F300605F0007008AE00700803194D2813
:100084002F08AD002E0803194B28AE0CAE13AD0A91
:1000940044280430B000B10D31100430AF07B00A69
:0800A40029282D08F0000800D6
:1000AC0083120313AD1B5C2888115D2888152D1B4A
:1000BC006128081162280815AD1A6628881067286F
:1000CC0088142D1A6B2808106C2808142418702812
:1000DC00081671280812881603208812AD19782882
:1000EC008811792888152D197D2808117E28081566
:1000FC00AD1882288810832888142D18872808109A
:10010C008828081424188C2808168D28081288169C
:10011C0003208812241C94280D2095280620080002
:10012C008312031324102C08AD005620241408004D
:0E013C008312031327088A0026088200080099
:10014A0022207008AC000F300605F0000319AF2812
:0A015A001A20A8282C08F000080065
:10016400C428803083120313A800D728C030A80005
:10017400D7289430A800D728D430A800D7288030B6
:10018400A800D728831203132808013A0319B328B7
:100194002808023A0319B8282808033A0319BB2887
:1001A4002808043A0319BE28C1282903F0002808A6
:1001B400F0077008A8007008AD0056202410AB01A9
:1001C4002B082A07840000080319F0282B082A07A3
:1001D40084000008AC009620AB0AE228241408002E
:1001E4008316031388120812081088100811881146
:1001F40083128812081288110811881008100D2023
:100204000D200D20881408148816032088120D2050
:100214008816032088120D208816032088120D20CA
:1002240008108816032088120D20881603208812CF
:10023400881088158816032088120D208811081448
:1002440088160320881208108816032088120D20AF
:1002540088160320881208148816032088120D209B
:1002640008108816032088128815081588140814A5
:0C0274008816032088120D2024140800B6
:1002800083120313A501A5207008A50070080319A7
:1002900043297A293730F000BB293830F000BB29D8
:1002A0003930F000BB292F30F000BB293430F0008A
:1002B000BB293530F000BB293630F000BB292A308D
:1002C000F000BB293130F000BB293230F000BB29EF
:1002D0003330F000BB292D30F000BB292A30F0006C
:1002E000BB293030F000BB293D30F000BB292B305A
:1002F000F000BB292508013A03194A292508023ACA
:1003000003194D292508033A031950292508043AF1
:10031000031953292508053A031956292508063AD1
:10032000031959292508073A03195C292508083AB1
:1003300003195F292508093A0319622925080A3A91
:100340000319652925080B3A0319682925080C3A71
:1003500003196B2925080D3A03196E2925080E3A51
:100360000319712925080F3A031974292508103A31
:08037000031977294029080058
:10037800803083120313F0007008063E8400FF30BB
:0403880080000800E9
:10038C009E208A110A128000840AA60A0319A70A61
:08039C00F003031DC62908004F
:1003A4003A3083120313A000A101A201A301BC21CE
:1003B4008316031788018901F2200130AD0056200D
:1003C4000C30AD0056200130A8000130A9002030C7
:1003D400AA00B2204021831203137008A2007008FF
:0803E400AC009620EC29F5297C
:04400E00F22F000786
:00000001FF
