:020000008F2A45
:06000600000000000800EC
:10000C000F3083120313FC004730FD00FD0B0C284E
:0A001C00FC0B0C2800000000080097
:0E002600213083120313FD00FD0B1728080084
:10003400063083120313FD00FD0B1E280000080088
:1000440083120313DE01E001E1011030E200043009
:10005400610203185328F03086008030F0007008E5
:10006400063E84006209F00070088000032003202B
:100074000F300605F0007008DF00700803194D28E2
:100084006008DE005F0803194B28DF0CDF13DE0A6B
:1000940044280430E100E20D62100430E007E10A74
:0800A40029285E08F0000800A5
:1000AC0083120313DE1B5C2888115D2888155E1BE8
:1000BC006128081162280815DE1A6628881067283E
:1000CC0088145E1A6B2808106C28081454187028B1
:1000DC00081671280812881603208812DE19782851
:1000EC008811792888155E197D2808117E28081535
:1000FC00DE1882288810832888145E188728081038
:10010C008828081454188C2808168D28081288166C
:10011C0003208812541C94280620952813200800CC
:10012C0022207008DD000F300605F0000319A0280E
:0A013C001A2099285D08F000080061
:0E0146008312031357088A005608820008002F
:100154008312031354105D08DE0056205414080063
:1001640006308312031385006D3087000630FB00D0
:100174001330FC00AD30FD00FD0BBE28FC0BBE2887
:10018400FB0BBE2800000000063085007D30870090
:100194000630FB001330FC00AD30FD00FD0BD02811
:1001A400FC0BD028FB0BD028000000000630850093
:1001B4004F3087000630FB001330FC00AD30FD00EB
:1001C400FD0BE228FC0BE228FB0BE22800000000F8
:1001D40006308500073087000630FB001330FC0032
:1001E400AD30FD00FD0BF428FC0BF428FB0BF428C8
:0601F400000000000800FD
:1001FA005B308312031385003F3087000630FB0013
:10020A001330FC00AD30FD00FD0B0929FC0B092958
:10021A00FB0B0929000000005B30850006308700CF
:10022A000630FB001330FC00AD30FD00FD0B1B292E
:10023A00FC0B1B29FB0B1B29000000005B3085000F
:10024A005B3087000630FB001330FC00AD30FD0048
:10025A00FD0B2D29FC0B2D29FB0B2D29000000007D
:02026A0008008A
:10026C0006308312031385003F3087000630FB00F5
:10027C001330FC00AD30FD00FD0B4229FC0B422974
:10028C00FB0B422900000000063085000630870079
:10029C000630FB001330FC00AD30FD00FD0B542983
:1002AC00FC0B5429FB0B5429000000000630850080
:1002BC005B3087000630FB001330FC00AD30FD00D6
:1002CC00FD0B6629FC0B6629FB0B66290000000060
:0202DC00080018
:1002DE0083120313D50196207008D50070080319F8
:1002EE007229A9293130F000EA293230F000EA29CA
:1002FE003330F000EA292F30F000EA293430F000D4
:10030E00EA293530F000EA293630F000EA292A30A1
:10031E00F000EA293730F000EA293830F000EA29F7
:10032E003930F000EA292D30F000EA292A30F000A9
:10033E00EA293030F000EA293D30F000EA292B306E
:10034E00F000EA295508013A031979295508023AAD
:10035E0003197C295508033A03197F295508043AD5
:10036E00031982295508053A031985295508063AB5
:10037E00031988295508073A03198B295508083A95
:10038E0003198E295508093A0319912955080A3A75
:10039E000319942955080B3A0319972955080C3A55
:1003AE0003199A2955080D3A03199D2955080E3A35
:1003BE000319A02955080F3A0319A3295508103A15
:0803CE000319A6296F2908009C
:1003D600803083120313F0007008063E8400FF305D
:0403E600800008008B
:1003EA00831603138812081208108810081188113E
:1003FA008312881208128811081188100810062022
:10040A00062006208814081488160320881206205D
:10041A0088160320881206208816032088120620D0
:10042A0008108816032088120620881603208812CE
:10043A008810881588160320881206208811081447
:10044A0088160320881208108816032088120620AE
:10045A00881603208812081488160320881206209A
:10046A00081088160320881288150815881408149D
:0C047A0088160320881206205414080085
:10048600552A803083120313D900682AC030D90058
:10049600682A9430D900682AD430D900682A803076
:1004A600D900682A831203135908013A0319442A0A
:1004B6005908023A0319492A5908033A03194C2ADA
:1004C6005908043A03194F2A522A5A03F0005908C8
:1004D600F0077008D9007008DE0056205410DC01C1
:1004E6005C085B07840000080319812A5C085B0727
:1004F60084000008DD00AA20DC0A732A54140800D0
:10050600A3208A110A128000840AD60A0319D70A80
:08051600F003031D832A080015
:10051E003C2383120313D801EB21F5210130DE00B9
:10052E0056200C30DE0056200130D9000130DA00A2
:10053E005230DB004322831603178801890103130F
:10054E00850187018312850187016F2183120313B1
:10055E007008D1005108313A031DCD2A0130D9005F
:10056E000130DA002A30DB0043220230D90001309C
:10057E00DA002030DB00432236210130DE00562027
:10058E006F21831203137008D100B12A5108323A39
:10059E00031DE22A0130DE0056200130D900013061
:1005AE00DA003630DB004322B2206F2183120313B0
:1005BE007008D100CD2A5108333A031DF72A0130B5
:1005CE00D9000130DA004230DB004322FD20013039
:1005DE00DE0056206F21831203137008D100E22A29
:0405EE00AC2AF82A11
:1006780020308400343083120313F000FE30D6009B
:080688000230D70083220800B4
:1005FC005434553452344E3420344C34453446340F
:04060C00543400342E
:1006100047344F3420345334543452344134493401
:0806200047344834543400341F
:1006280047344F34203453345434523441344934E9
:08063800473448345434003407
:100640004A345534533454342034543455345234A9
:0E0650004E3420344C34453446345434003497
:02065E00003466
:040660003A340034F4
:100664003F3406345B344F3466346D347D340734A0
:040674007F346F342C
:04400E00F22F000786
:00000001FF
