:02000000982A3C
:06000600000000000800EC
:10000C000F3083120313FC004730FD00FD0B0C284E
:0A001C00FC0B0C2800000000080097
:0E002600213083120313FD00FD0B1728080084
:10003400063083120313FD00FD0B1E280000080088
:1000440083120313EE018316B001B1011030B20024
:100054000430310203185B28F030831286008030AC
:10006400F0007008063E840083163209F000700820
:100074008000032003200F3083120605F00070086F
:10008400EF00700803195428831630088312EE0019
:100094006F0803195128EF0CEF13EE0A4A280430B5
:1000A4008316B1008316B20D32100430B007B10AC2
:0A00B4002A2883126E08F0000800ED
:1000BE0083120313EE1B65288811662888156E1BA4
:1000CE006A2808116B280815EE1A6F2888107028F8
:1000DE0088146E1A74280810752808146718792861
:1000EE0008167A280812881603208812EE1981281D
:1000FE008811822888156E198628081187280815F8
:10010E00EE188B2888108C2888146E1890280810EA
:10011E00912808146718952808169628081288162C
:10012E0003208812671C9D2806209E281320080095
:10013E0022207008ED000F300605F0000319A928E3
:0A014E001A20A2286D08F000080036
:0E0158008312031365088A0064088200080001
:100166008312031367106D08EE005F206714080002
:1001760006308312031385006D3087000630FB00BE
:100186001330FC00AD30FD00FD0BC728FC0BC72863
:10019600FB0BC72800000000063085007D30870075
:1001A6000630FB001330FC00AD30FD00FD0BD928F6
:1001B600FC0BD928FB0BD92800000000063085006F
:1001C6004F3087000630FB001330FC00AD30FD00D9
:1001D600FD0BEB28FC0BEB28FB0BEB2800000000CB
:1001E60006308500073087000630FB001330FC0020
:1001F600AD30FD00FD0BFD28FC0BFD28FB0BFD289B
:06020600000000000800EA
:10020C005B308312031385003F3087000630FB0000
:10021C001330FC00AD30FD00FD0B1229FC0B122934
:10022C00FB0B1229000000005B30850006308700B4
:10023C000630FB001330FC00AD30FD00FD0B242913
:10024C00FC0B2429FB0B2429000000005B308500EB
:10025C005B3087000630FB001330FC00AD30FD0036
:10026C00FD0B3629FC0B3629FB0B36290000000050
:02027C00080078
:10027E0006308312031385003F3087000630FB00E3
:10028E001330FC00AD30FD00FD0B4B29FC0B4B2950
:10029E00FB0B4B290000000006308500063087005E
:1002AE000630FB001330FC00AD30FD00FD0B5D2968
:1002BE00FC0B5D29FB0B5D2900000000063085005C
:1002CE005B3087000630FB001330FC00AD30FD00C4
:1002DE00FD0B6F29FC0B6F29FB0B6F290000000033
:0202EE00080006
:1002F00083120313E6019F207008E60070080319BB
:100300007B29B2293130F000F3293230F000F32993
:100310003330F000F3292F30F000F3293430F000AF
:10032000F3293530F000F3293630F000F3292A3074
:10033000F000F3293730F000F3293830F000F329CA
:100340003930F000F3292D30F000F3292A30F00085
:10035000F3293030F000F3293D30F000F3292B3041
:10036000F000F3296608013A031982296608023A67
:10037000031985296608033A031988296608043A8F
:1003800003198B296608053A03198E296608063A6F
:10039000031991296608073A031994296608083A4F
:1003A000031997296608093A03199A2966080A3A2F
:1003B00003199D2966080B3A0319A02966080C3A0F
:1003C0000319A32966080D3A0319A62966080E3AEF
:1003D0000319A92966080F3A0319AC296608103ACF
:0803E0000319AF297829080078
:1003E800803083120313F0007008063E8400FF304B
:0403F8008000080079
:1003FC00831603138812081208108810081188112C
:10040C00831288120812881108118810081006200F
:10041C00062006208814081488160320881206204B
:10042C0088160320881206208816032088120620BE
:10043C0008108816032088120620881603208812BC
:10044C008810881588160320881206208811081435
:10045C00881603208812081088160320881206209C
:10046C008816032088120814881603208812062088
:10047C00081088160320881288150815881408148B
:0C048C0088160320881206206714080060
:100498005E2A803083120313E900712AC030E90014
:1004A800712A9430E900712AD430E900712A803029
:1004B800E900712A831203136908013A03194D2AC6
:1004C8006908023A0319522A6908033A0319552A96
:1004D8006908043A0319582A5B2A6A03F000690874
:1004E800F0077008E9007008EE005F206710EC0163
:1004F8006C086B078400000803198A2A6C086B07CC
:1005080084000008ED00B320EC0A7C2A6714080078
:10051800AC208A110A128000840AE40A0319E50A49
:08052800F003031D8C2A0800FA
:10053000A82383120313E801F421FE210130EE0009
:100540005F200C30EE005F200130E9000130EA004E
:100550006230EB004C2283160317880189010313D4
:100560008501870183128501870178218312031396
:100570007008E1006108313A031DD62A0130E90014
:100580000130EA003630EB004C220230E900013045
:10059000EA002C30EB004C223F210130EE005F20BE
:1005A0007821831203137008E100BA2A6108323AF5
:1005B000031DEB2A0130EE005F200130E90001301D
:1005C000EA002030EB004C22BB2078218312031379
:1005D0007008E100D62A6108333A031D002B013070
:1005E000E9000130EA004230EB004C2206210130E4
:1005F000EE005F207821831203137008E100EB2ADC
:100600006108333A03190D2B6108363A03190D2B93
:100610006108393A03190D2B432B0130E9000130F1
:10062000EA00A030EB004C220B30FB002630FC002F
:100630005D30FD00FD0B1A2BFC0B1A2BFB0B1A2B4C
:10064000000000000130EE005F200130E9000130C1
:10065000EA005130EB004C220B30FB002630FC004E
:100660005D30FD00FD0B322BFC0B322BFB0B322BD4
:10067000000000000130EE005F2078218312031398
:0A0680007008E100002BB52A442B9E
:1007500020308400413083120313F0004A30E4005B
:100760000330E5008C22A03084001030F0008B3084
:10077000E4000330E5008C22613084000330F00097
:0C078000A530E4000330E5008C220800E6
:1006940047344F342034533454345234413449347D
:0806A40047344834543400349B
:1006AC005434553452344E3420344C34453446345E
:0406BC00543400347E
:1006C00047344F3420345334543452344134493451
:0806D00047344834543400346F
:1006D8004A34553453345434203454345534523411
:0E06E8004E3420344C344534463454340034FF
:1006F6006D3465347334733461346734653420344F
:1007060066346C3475347334683465347334003449
:100716006D3465347334733461346734653420342E
:1007260066346C3475347334683465347334003429
:100736003F3406345B344F3466346D347D340734CD
:040746007F346F3459
:02074A00003479
:04074C003A34003407
:04400E00F22F000786
:00000001FF
