:02000000B62A1E
:06000600000000000800EC
:10000C000F3083120313FC004730FD00FD0B0C284E
:0A001C00FC0B0C2800000000080097
:0E002600213083120313FD00FD0B1728080084
:10003400063083120313FD00FD0B1E280000080088
:1000440083160313AE01B001B1011030B2000430C5
:10005400310203185728F030831286008030F000F4
:100064007008063E840083163209F0007008800090
:10007400032003200F3083120605F0007008831656
:10008400AF007008031951283008AE002F08031977
:100094004F28AF0CAF13AE0A48280430B100B20D9C
:1000A40032100430B007B10A29282E08F0000800E5
:1000B40083160313AE1B61288312881163288312ED
:1000C400881583162E1B6928831208116B28831246
:1000D40008158316AE1A71288312881073288312A8
:1000E400881483162E1A7928831208107B28831209
:1000F40008146A187F280816802808128816032016
:1001040088128316AE198928831288118B288312CA
:10011400881583162E1991288312081193288312A7
:1001240008158316AE189928831288109B28831209
:10013400881483162E18A12883120810A32883126A
:1001440008146A18A7280816A82808128816032075
:0E01540088126A1CAF280620B028132008006D
:1001620022207008AD000F3083120605F00003193B
:0E017200BC281A20B42883162D08F0000800BF
:0E0180008312031369088A00680882000800D1
:10018E00831203136A1083162D08AE005A206A14C8
:02019E00080057
:1001A00006308312031385006D3087000630FB0094
:1001B0001330FC00AD30FD00FD0BDC28FC0BDC280F
:1001C000FB0BDC2800000000063085007D30870036
:1001D0000630FB001330FC00AD30FD00FD0BEE28B7
:1001E000FC0BEE28FB0BEE2800000000063085001B
:1001F0004F3087000630FB001330FC00AD30FD00AF
:10020000FD0B0029FC0B0029FB0B0029000000005E
:1002100006308500073087000630FB001330FC00F5
:10022000AD30FD00FD0B1229FC0B1229FB0B12292E
:06023000000000000800C0
:100236005B308312031385003F3087000630FB00D6
:100246001330FC00AD30FD00FD0B2729FC0B2729E0
:10025600FB0B2729000000005B3085000630870075
:100266000630FB001330FC00AD30FD00FD0B3929D4
:10027600FC0B3929FB0B3929000000005B30850097
:100286005B3087000630FB001330FC00AD30FD000C
:10029600FD0B4B29FC0B4B29FB0B4B2900000000E7
:0202A60008004E
:1002A80006308312031385003F3087000630FB00B9
:1002B8001330FC00AD30FD00FD0B6029FC0B6029FC
:1002C800FB0B60290000000006308500063087001F
:1002D8000630FB001330FC00AD30FD00FD0B722929
:1002E800FC0B7229FB0B7229000000000630850008
:1002F8005B3087000630FB001330FC00AD30FD009A
:10030800FD0B8429FC0B8429FB0B842900000000C9
:020318000800DB
:10031A0083120313EC01B12070088312EC007008F9
:10032A0003199029C8293130F000092A3230F00027
:10033A00092A3330F000092A2F30F000092A343014
:10034A00F000092A3530F000092A3630F000092A6F
:10035A002A30F000092A3730F000092A3830F00034
:10036A00092A3930F000092A2D30F000092A2A30EA
:10037A00F000092A3030F000092A3D30F000092A3D
:10038A002B30F000092A6C08013A031998296C08E5
:10039A00023A03199B296C08033A03199E296C082F
:1003AA00043A0319A1296C08053A0319A4296C080F
:1003BA00063A0319A7296C08073A0319AA296C08EF
:1003CA00083A0319AD296C08093A0319B0296C08CF
:1003DA000A3A0319B3296C080B3A0319B6296C08AF
:1003EA000C3A0319B9296C080D3A0319BC296C088F
:1003FA000E3A0319BF296C080F3A0319C2296C086F
:0A040A00103A0319C5298D290800D6
:10041400803083120313F0007008063E8400FF301E
:04042400800008004C
:1004280083160313881208120810881008118811FF
:1004380083128812081288110811881008100620E3
:10044800062006208814081488160320881206201F
:100458008816032088120620881603208812062092
:100468000810881603208812062088160320881290
:100478008810881588160320881206208811081409
:100488008816032088120810881603208812062070
:10049800881603208812081488160320881206205C
:1004A800081088160320881288150815881408145F
:0C04B80088160320881206206A14080031
:1004C400742A803083120313ED00872AC030ED00B4
:1004D400872A9430ED00872AD430ED00872A8030B3
:1004E400ED00872A831203136D08013A0319632A66
:1004F4006D08023A0319682A6D08033A03196B2A36
:100504006D08043A03196E2A712A6E03F0006D080F
:10051400F0077008ED0070088316AE005A206A10C8
:100524008316AC012C0883126F078400000803199A
:10053400A72A83162C0883126F07840000088316E9
:10054400AD00C7208316AC0A942A83126A140800EB
:10055400C0208A110A128000840AE80A0319E90AF1
:08056400F003031DAA2A0800A0
:10056C00E62383120313EB010A22142201308316B3
:10057C00AE005A200C308316AE005A200317871396
:10058C00881383160313970101308312ED00013099
:10059C00EE006530EF006222831603178801890193
:1005AC0003138501870183128501870183160813C4
:1005BC00831289018D21831203137008E7006708E9
:1005CC00313A031D032B0130ED000130EE00A03059
:1005DC00EF0062220230ED000130EE005B30EF00E4
:1005EC0062225421542101308316AE005A208D21F1
:1005FC00831203137008E700E52A6708323A031DDB
:10060C001A2B01308316AE005A200130ED00013058
:10061C00EE002F30EF006222D020D0208D218312EB
:10062C0003137008E700032B6708333A031D312BC3
:10063C0001308316AE005A200130ED000130EE007F
:10064C002030EF0062221B211B218D21831203130A
:10065C007008E7001A2B6708333A03193E2B67081A
:10066C00363A03193E2B6708393A03193E2B802B77
:10067C000130ED000130EE003B30EF006222FF3024
:10068C00890008170B30FB002630FC005D30FD00A4
:10069C00FD0B4E2BFC0B4E2BFB0B4E2B00000000CE
:1006AC008901081301308316AE005A20FF308900EF
:1006BC0008170130ED000130EE004B30EF006222E4
:1006CC000B30FB002630FC005D30FD00FD0B6C2B6D
:1006DC00FC0B6C2BFB0B6C2B000000000130831609
:1006EC00AE005A20890108138D2183120313700860
:0806FC00E700312BE02A812BFD
:1007CC0020308400473083120313F0008730E80098
:1007DC000330E900AA22A03084000C300313F0008F
:1007EC00CE30E8000330E900AA22673084000130E3
:1007FC000313F000E430E8000330E900AA220800FB
:10070E004A345534533454342034543455345234DA
:0E071E004E3420344C344534463454340034C8
:10072C0047344F34203453345434523441344934E4
:08073C00473448345434003402
:100744006D34653473347334613467346534203400
:1007540066346C34753473346834653473340034FB
:100764006D346534733473346134673465342034E0
:1007740066346C34753473346834653473340034DB
:100784005434553452344E3420344C344534463485
:0407940054340034A5
:040798003A340034BB
:10079C0047344F3420345334543452344134493474
:0807AC00473448345434003492
:1007B4003F3406345B344F3466346D347D3407344F
:0407C4007F346F34DB
:0207C8000034FB
:04400E00F22F000786
:00000001FF
